{
  "_format": "hh-sol-artifact-1",
  "contractName": "CashbackRewards",
  "sourceName": "contracts/CashbackRewards.sol",
  "abi": [
    {
      "inputs": [
        {
          "internalType": "address",
          "name": "_rewardsToken",
          "type": "address"
        }
      ],
      "stateMutability": "nonpayable",
      "type": "constructor"
    },
    {
      "anonymous": false,
      "inputs": [
        {
          "indexed": true,
          "internalType": "uint256",
          "name": "transactionId",
          "type": "uint256"
        },
        {
          "indexed": true,
          "internalType": "address",
          "name": "user",
          "type": "address"
        },
        {
          "indexed": true,
          "internalType": "address",
          "name": "merchant",
          "type": "address"
        },
        {
          "indexed": false,
          "internalType": "uint256",
          "name": "amount",
          "type": "uint256"
        },
        {
          "indexed": false,
          "internalType": "uint256",
          "name": "cashbackAmount",
          "type": "uint256"
        }
      ],
      "name": "CashbackIssued",
      "type": "event"
    },
    {
      "anonymous": false,
      "inputs": [
        {
          "indexed": true,
          "internalType": "address",
          "name": "user",
          "type": "address"
        },
        {
          "indexed": false,
          "internalType": "uint256",
          "name": "amount",
          "type": "uint256"
        }
      ],
      "name": "CashbackWithdrawn",
      "type": "event"
    },
    {
      "anonymous": false,
      "inputs": [
        {
          "indexed": true,
          "internalType": "address",
          "name": "merchantWallet",
          "type": "address"
        },
        {
          "indexed": false,
          "internalType": "uint256",
          "name": "cashbackRate",
          "type": "uint256"
        }
      ],
      "name": "MerchantRegistered",
      "type": "event"
    },
    {
      "anonymous": false,
      "inputs": [
        {
          "indexed": true,
          "internalType": "address",
          "name": "merchantWallet",
          "type": "address"
        }
      ],
      "name": "MerchantRemoved",
      "type": "event"
    },
    {
      "anonymous": false,
      "inputs": [
        {
          "indexed": true,
          "internalType": "address",
          "name": "merchantWallet",
          "type": "address"
        },
        {
          "indexed": false,
          "internalType": "uint256",
          "name": "newCashbackRate",
          "type": "uint256"
        }
      ],
      "name": "MerchantUpdated",
      "type": "event"
    },
    {
      "anonymous": false,
      "inputs": [
        {
          "indexed": true,
          "internalType": "address",
          "name": "previousOwner",
          "type": "address"
        },
        {
          "indexed": true,
          "internalType": "address",
          "name": "newOwner",
          "type": "address"
        }
      ],
      "name": "OwnershipTransferred",
      "type": "event"
    },
    {
      "inputs": [
        {
          "internalType": "address",
          "name": "_user",
          "type": "address"
        }
      ],
      "name": "getAvailableCashback",
      "outputs": [
        {
          "internalType": "uint256",
          "name": "",
          "type": "uint256"
        }
      ],
      "stateMutability": "view",
      "type": "function"
    },
    {
      "inputs": [
        {
          "internalType": "address",
          "name": "_merchant",
          "type": "address"
        }
      ],
      "name": "getMerchantCashbackRate",
      "outputs": [
        {
          "internalType": "uint256",
          "name": "",
          "type": "uint256"
        }
      ],
      "stateMutability": "view",
      "type": "function"
    },
    {
      "inputs": [
        {
          "internalType": "address",
          "name": "_merchant",
          "type": "address"
        }
      ],
      "name": "isMerchant",
      "outputs": [
        {
          "internalType": "bool",
          "name": "",
          "type": "bool"
        }
      ],
      "stateMutability": "view",
      "type": "function"
    },
    {
      "inputs": [
        {
          "internalType": "address",
          "name": "_user",
          "type": "address"
        },
        {
          "internalType": "uint256",
          "name": "_purchaseAmount",
          "type": "uint256"
        }
      ],
      "name": "issueCashback",
      "outputs": [],
      "stateMutability": "nonpayable",
      "type": "function"
    },
    {
      "inputs": [
        {
          "internalType": "address",
          "name": "",
          "type": "address"
        }
      ],
      "name": "merchants",
      "outputs": [
        {
          "internalType": "bool",
          "name": "isRegistered",
          "type": "bool"
        },
        {
          "internalType": "uint256",
          "name": "cashbackRate",
          "type": "uint256"
        },
        {
          "internalType": "uint256",
          "name": "totalRewardsDistributed",
          "type": "uint256"
        },
        {
          "internalType": "address",
          "name": "merchantWallet",
          "type": "address"
        }
      ],
      "stateMutability": "view",
      "type": "function"
    },
    {
      "inputs": [],
      "name": "owner",
      "outputs": [
        {
          "internalType": "address",
          "name": "",
          "type": "address"
        }
      ],
      "stateMutability": "view",
      "type": "function"
    },
    {
      "inputs": [
        {
          "internalType": "address",
          "name": "_merchantWallet",
          "type": "address"
        },
        {
          "internalType": "uint256",
          "name": "_cashbackRate",
          "type": "uint256"
        }
      ],
      "name": "registerMerchant",
      "outputs": [],
      "stateMutability": "nonpayable",
      "type": "function"
    },
    {
      "inputs": [
        {
          "internalType": "address",
          "name": "_merchantWallet",
          "type": "address"
        }
      ],
      "name": "removeMerchant",
      "outputs": [],
      "stateMutability": "nonpayable",
      "type": "function"
    },
    {
      "inputs": [],
      "name": "renounceOwnership",
      "outputs": [],
      "stateMutability": "nonpayable",
      "type": "function"
    },
    {
      "inputs": [],
      "name": "rewardsToken",
      "outputs": [
        {
          "internalType": "contract IERC20",
          "name": "",
          "type": "address"
        }
      ],
      "stateMutability": "view",
      "type": "function"
    },
    {
      "inputs": [],
      "name": "transactionCount",
      "outputs": [
        {
          "internalType": "uint256",
          "name": "",
          "type": "uint256"
        }
      ],
      "stateMutability": "view",
      "type": "function"
    },
    {
      "inputs": [
        {
          "internalType": "uint256",
          "name": "",
          "type": "uint256"
        }
      ],
      "name": "transactions",
      "outputs": [
        {
          "internalType": "uint256",
          "name": "id",
          "type": "uint256"
        },
        {
          "internalType": "address",
          "name": "user",
          "type": "address"
        },
        {
          "internalType": "address",
          "name": "merchant",
          "type": "address"
        },
        {
          "internalType": "uint256",
          "name": "amount",
          "type": "uint256"
        },
        {
          "internalType": "uint256",
          "name": "cashbackAmount",
          "type": "uint256"
        },
        {
          "internalType": "uint256",
          "name": "timestamp",
          "type": "uint256"
        }
      ],
      "stateMutability": "view",
      "type": "function"
    },
    {
      "inputs": [
        {
          "internalType": "address",
          "name": "newOwner",
          "type": "address"
        }
      ],
      "name": "transferOwnership",
      "outputs": [],
      "stateMutability": "nonpayable",
      "type": "function"
    },
    {
      "inputs": [
        {
          "internalType": "address",
          "name": "_merchantWallet",
          "type": "address"
        },
        {
          "internalType": "uint256",
          "name": "_newCashbackRate",
          "type": "uint256"
        }
      ],
      "name": "updateMerchantCashbackRate",
      "outputs": [],
      "stateMutability": "nonpayable",
      "type": "function"
    },
    {
      "inputs": [
        {
          "internalType": "address",
          "name": "",
          "type": "address"
        }
      ],
      "name": "users",
      "outputs": [
        {
          "internalType": "bool",
          "name": "exists",
          "type": "bool"
        },
        {
          "internalType": "uint256",
          "name": "totalCashbackEarned",
          "type": "uint256"
        },
        {
          "internalType": "uint256",
          "name": "availableCashback",
          "type": "uint256"
        }
      ],
      "stateMutability": "view",
      "type": "function"
    },
    {
      "inputs": [
        {
          "internalType": "uint256",
          "name": "_amount",
          "type": "uint256"
        }
      ],
      "name": "withdrawCashback",
      "outputs": [],
      "stateMutability": "nonpayable",
      "type": "function"
    }
  ],
  "bytecode": "0x608060405234801561001057600080fd5b50604051612483380380612483833981810160405281019061003291906101cb565b61004e61004361009c60201b60201c565b6100a460201b60201c565b6001808190555080600260006101000a81548173ffffffffffffffffffffffffffffffffffffffff021916908373ffffffffffffffffffffffffffffffffffffffff160217905550506101f8565b600033905090565b60008060009054906101000a900473ffffffffffffffffffffffffffffffffffffffff169050816000806101000a81548173ffffffffffffffffffffffffffffffffffffffff021916908373ffffffffffffffffffffffffffffffffffffffff1602179055508173ffffffffffffffffffffffffffffffffffffffff168173ffffffffffffffffffffffffffffffffffffffff167f8be0079c531659141344cd1fd0a4f28419497f9722a3daafe3b4186f6b6457e060405160405180910390a35050565b600080fd5b600073ffffffffffffffffffffffffffffffffffffffff82169050919050565b60006101988261016d565b9050919050565b6101a88161018d565b81146101b357600080fd5b50565b6000815190506101c58161019f565b92915050565b6000602082840312156101e1576101e0610168565b5b60006101ef848285016101b6565b91505092915050565b61227c806102076000396000f3fe608060405234801561001057600080fd5b50600436106101005760003560e01c8063a7f339b211610097578063e6ddce1811610066578063e6ddce18146102a0578063eafa5199146102bc578063ee14e939146102ec578063f2fde38b1461031f57610100565b8063a7f339b214610202578063a87430ba14610232578063b77bf60014610264578063d1af0c7d1461028257610100565b8063715018a6116100d3578063715018a6146101895780638da5cb5b146101935780639ace38c2146101b1578063a7cbf44b146101e657610100565b8063133adab6146101055780631a2f7167146101215780634a8421b9146101515780635ac8a60f1461016d575b600080fd5b61011f600480360381019061011a91906116c7565b61033b565b005b61013b600480360381019061013691906116c7565b6104a5565b604051610148919061170f565b60405180910390f35b61016b60048036038101906101669190611760565b6104fe565b005b61018760048036038101906101829190611760565b610794565b005b610191610909565b005b61019b61091d565b6040516101a891906117af565b60405180910390f35b6101cb60048036038101906101c691906117ca565b610946565b6040516101dd96959493929190611806565b60405180910390f35b61020060048036038101906101fb91906117ca565b6109c2565b005b61021c600480360381019061021791906116c7565b610cb2565b6040516102299190611867565b60405180910390f35b61024c600480360381019061024791906116c7565b610cfe565b60405161025b93929190611882565b60405180910390f35b61026c610d35565b6040516102799190611867565b60405180910390f35b61028a610d3b565b6040516102979190611918565b60405180910390f35b6102ba60048036038101906102b59190611760565b610d61565b005b6102d660048036038101906102d191906116c7565b611396565b6040516102e39190611867565b60405180910390f35b610306600480360381019061030191906116c7565b6113e2565b6040516103169493929190611933565b60405180910390f35b610339600480360381019061033491906116c7565b61143f565b005b6103436114c2565b600360008273ffffffffffffffffffffffffffffffffffffffff1673ffffffffffffffffffffffffffffffffffffffff16815260200190815260200160002060000160009054906101000a900460ff166103d2576040517f08c379a00000000000000000000000000000000000000000000000000000000081526004016103c9906119d5565b60405180910390fd5b600360008273ffffffffffffffffffffffffffffffffffffffff1673ffffffffffffffffffffffffffffffffffffffff168152602001908152602001600020600080820160006101000a81549060ff0219169055600182016000905560028201600090556003820160006101000a81549073ffffffffffffffffffffffffffffffffffffffff021916905550508073ffffffffffffffffffffffffffffffffffffffff167fae4bdf5adabafca6721399496d24fe50fb6564effcb386fbae92de33540763bc60405160405180910390a250565b6000600360008373ffffffffffffffffffffffffffffffffffffffff1673ffffffffffffffffffffffffffffffffffffffff16815260200190815260200160002060000160009054906101000a900460ff169050919050565b6105066114c2565b600073ffffffffffffffffffffffffffffffffffffffff168273ffffffffffffffffffffffffffffffffffffffff1603610575576040517f08c379a000000000000000000000000000000000000000000000000000000000815260040161056c90611a41565b60405180910390fd5b600360008373ffffffffffffffffffffffffffffffffffffffff1673ffffffffffffffffffffffffffffffffffffffff16815260200190815260200160002060000160009054906101000a900460ff1615610605576040517f08c379a00000000000000000000000000000000000000000000000000000000081526004016105fc90611aad565b60405180910390fd5b61271081111561064a576040517f08c379a000000000000000000000000000000000000000000000000000000000815260040161064190611b19565b60405180910390fd5b6040518060800160405280600115158152602001828152602001600081526020018373ffffffffffffffffffffffffffffffffffffffff16815250600360008473ffffffffffffffffffffffffffffffffffffffff1673ffffffffffffffffffffffffffffffffffffffff16815260200190815260200160002060008201518160000160006101000a81548160ff021916908315150217905550602082015181600101556040820151816002015560608201518160030160006101000a81548173ffffffffffffffffffffffffffffffffffffffff021916908373ffffffffffffffffffffffffffffffffffffffff1602179055509050508173ffffffffffffffffffffffffffffffffffffffff167f331b591cc0983cd9d399b50dbfa864f253f25c72e8eb5e3dec66264028a81298826040516107889190611867565b60405180910390a25050565b61079c6114c2565b600360008373ffffffffffffffffffffffffffffffffffffffff1673ffffffffffffffffffffffffffffffffffffffff16815260200190815260200160002060000160009054906101000a900460ff1661082b576040517f08c379a0000000000000000000000000000000000000000000000000000000008152600401610822906119d5565b60405180910390fd5b612710811115610870576040517f08c379a000000000000000000000000000000000000000000000000000000000815260040161086790611b19565b60405180910390fd5b80600360008473ffffffffffffffffffffffffffffffffffffffff1673ffffffffffffffffffffffffffffffffffffffff168152602001908152602001600020600101819055508173ffffffffffffffffffffffffffffffffffffffff167f6ebd98da0044d29eae0f68eabb4272fcca0178e38a16712bb66c58f2bf27e74e826040516108fd9190611867565b60405180910390a25050565b6109116114c2565b61091b6000611540565b565b60008060009054906101000a900473ffffffffffffffffffffffffffffffffffffffff16905090565b60056020528060005260406000206000915090508060000154908060010160009054906101000a900473ffffffffffffffffffffffffffffffffffffffff16908060020160009054906101000a900473ffffffffffffffffffffffffffffffffffffffff16908060030154908060040154908060050154905086565b6109ca611604565b600460003373ffffffffffffffffffffffffffffffffffffffff1673ffffffffffffffffffffffffffffffffffffffff16815260200190815260200160002060000160009054906101000a900460ff16610a59576040517f08c379a0000000000000000000000000000000000000000000000000000000008152600401610a5090611b85565b60405180910390fd5b60008111610a9c576040517f08c379a0000000000000000000000000000000000000000000000000000000008152600401610a9390611bf1565b60405180910390fd5b600460003373ffffffffffffffffffffffffffffffffffffffff1673ffffffffffffffffffffffffffffffffffffffff16815260200190815260200160002060020154811115610b21576040517f08c379a0000000000000000000000000000000000000000000000000000000008152600401610b1890611c5d565b60405180910390fd5b80600460003373ffffffffffffffffffffffffffffffffffffffff1673ffffffffffffffffffffffffffffffffffffffff1681526020019081526020016000206002016000828254610b739190611cac565b92505081905550600260009054906101000a900473ffffffffffffffffffffffffffffffffffffffff1673ffffffffffffffffffffffffffffffffffffffff1663a9059cbb33836040518363ffffffff1660e01b8152600401610bd7929190611ce0565b6020604051808303816000875af1158015610bf6573d6000803e3d6000fd5b505050506040513d601f19601f82011682018060405250810190610c1a9190611d35565b610c59576040517f08c379a0000000000000000000000000000000000000000000000000000000008152600401610c5090611dae565b60405180910390fd5b3373ffffffffffffffffffffffffffffffffffffffff167f550b6791b38fd89f53d125cd28a82a309515326d004b7a7b0dcec415d69825da82604051610c9f9190611867565b60405180910390a2610caf611653565b50565b6000600360008373ffffffffffffffffffffffffffffffffffffffff1673ffffffffffffffffffffffffffffffffffffffff168152602001908152602001600020600101549050919050565b60046020528060005260406000206000915090508060000160009054906101000a900460ff16908060010154908060020154905083565b60065481565b600260009054906101000a900473ffffffffffffffffffffffffffffffffffffffff1681565b610d69611604565b600360003373ffffffffffffffffffffffffffffffffffffffff1673ffffffffffffffffffffffffffffffffffffffff16815260200190815260200160002060000160009054906101000a900460ff16610df8576040517f08c379a0000000000000000000000000000000000000000000000000000000008152600401610def90611e40565b60405180910390fd5b600073ffffffffffffffffffffffffffffffffffffffff168273ffffffffffffffffffffffffffffffffffffffff1603610e67576040517f08c379a0000000000000000000000000000000000000000000000000000000008152600401610e5e90611eac565b60405180910390fd5b60008111610eaa576040517f08c379a0000000000000000000000000000000000000000000000000000000008152600401610ea190611f3e565b60405180910390fd5b600460008373ffffffffffffffffffffffffffffffffffffffff1673ffffffffffffffffffffffffffffffffffffffff16815260200190815260200160002060000160009054906101000a900460ff16610f95576040518060600160405280600115158152602001600081526020016000815250600460008473ffffffffffffffffffffffffffffffffffffffff1673ffffffffffffffffffffffffffffffffffffffff16815260200190815260200160002060008201518160000160006101000a81548160ff02191690831515021790555060208201518160010155604082015181600201559050505b6000612710600360003373ffffffffffffffffffffffffffffffffffffffff1673ffffffffffffffffffffffffffffffffffffffff1681526020019081526020016000206001015483610fe89190611f5e565b610ff29190611fcf565b905080600360003373ffffffffffffffffffffffffffffffffffffffff1673ffffffffffffffffffffffffffffffffffffffff16815260200190815260200160002060020160008282546110469190612000565b9250508190555080600460008573ffffffffffffffffffffffffffffffffffffffff1673ffffffffffffffffffffffffffffffffffffffff168152602001908152602001600020600101600082825461109f9190612000565b9250508190555080600460008573ffffffffffffffffffffffffffffffffffffffff1673ffffffffffffffffffffffffffffffffffffffff16815260200190815260200160002060020160008282546110f89190612000565b9250508190555060006006600081548092919061111490612034565b9190505590506040518060c001604052808281526020018573ffffffffffffffffffffffffffffffffffffffff1681526020013373ffffffffffffffffffffffffffffffffffffffff16815260200184815260200183815260200142815250600560008381526020019081526020016000206000820151816000015560208201518160010160006101000a81548173ffffffffffffffffffffffffffffffffffffffff021916908373ffffffffffffffffffffffffffffffffffffffff16021790555060408201518160020160006101000a81548173ffffffffffffffffffffffffffffffffffffffff021916908373ffffffffffffffffffffffffffffffffffffffff160217905550606082015181600301556080820151816004015560a08201518160050155905050600260009054906101000a900473ffffffffffffffffffffffffffffffffffffffff1673ffffffffffffffffffffffffffffffffffffffff166323b872dd3330856040518463ffffffff1660e01b815260040161129e9392919061207c565b6020604051808303816000875af11580156112bd573d6000803e3d6000fd5b505050506040513d601f19601f820116820180604052508101906112e19190611d35565b611320576040517f08c379a000000000000000000000000000000000000000000000000000000000815260040161131790611dae565b60405180910390fd5b3373ffffffffffffffffffffffffffffffffffffffff168473ffffffffffffffffffffffffffffffffffffffff16827f8da58ed994fc3febf5a185dd3f52722b776c624fdd81314864b7779af0c5385386866040516113809291906120b3565b60405180910390a45050611392611653565b5050565b6000600460008373ffffffffffffffffffffffffffffffffffffffff1673ffffffffffffffffffffffffffffffffffffffff168152602001908152602001600020600201549050919050565b60036020528060005260406000206000915090508060000160009054906101000a900460ff16908060010154908060020154908060030160009054906101000a900473ffffffffffffffffffffffffffffffffffffffff16905084565b6114476114c2565b600073ffffffffffffffffffffffffffffffffffffffff168173ffffffffffffffffffffffffffffffffffffffff16036114b6576040517f08c379a00000000000000000000000000000000000000000000000000000000081526004016114ad9061214e565b60405180910390fd5b6114bf81611540565b50565b6114ca61165c565b73ffffffffffffffffffffffffffffffffffffffff166114e861091d565b73ffffffffffffffffffffffffffffffffffffffff161461153e576040517f08c379a0000000000000000000000000000000000000000000000000000000008152600401611535906121ba565b60405180910390fd5b565b60008060009054906101000a900473ffffffffffffffffffffffffffffffffffffffff169050816000806101000a81548173ffffffffffffffffffffffffffffffffffffffff021916908373ffffffffffffffffffffffffffffffffffffffff1602179055508173ffffffffffffffffffffffffffffffffffffffff168173ffffffffffffffffffffffffffffffffffffffff167f8be0079c531659141344cd1fd0a4f28419497f9722a3daafe3b4186f6b6457e060405160405180910390a35050565b600260015403611649576040517f08c379a000000000000000000000000000000000000000000000000000000000815260040161164090612226565b60405180910390fd5b6002600181905550565b60018081905550565b600033905090565b600080fd5b600073ffffffffffffffffffffffffffffffffffffffff82169050919050565b600061169482611669565b9050919050565b6116a481611689565b81146116af57600080fd5b50565b6000813590506116c18161169b565b92915050565b6000602082840312156116dd576116dc611664565b5b60006116eb848285016116b2565b91505092915050565b60008115159050919050565b611709816116f4565b82525050565b60006020820190506117246000830184611700565b92915050565b6000819050919050565b61173d8161172a565b811461174857600080fd5b50565b60008135905061175a81611734565b92915050565b6000806040838503121561177757611776611664565b5b6000611785858286016116b2565b92505060206117968582860161174b565b9150509250929050565b6117a981611689565b82525050565b60006020820190506117c460008301846117a0565b92915050565b6000602082840312156117e0576117df611664565b5b60006117ee8482850161174b565b91505092915050565b6118008161172a565b82525050565b600060c08201905061181b60008301896117f7565b61182860208301886117a0565b61183560408301876117a0565b61184260608301866117f7565b61184f60808301856117f7565b61185c60a08301846117f7565b979650505050505050565b600060208201905061187c60008301846117f7565b92915050565b60006060820190506118976000830186611700565b6118a460208301856117f7565b6118b160408301846117f7565b949350505050565b6000819050919050565b60006118de6118d96118d484611669565b6118b9565b611669565b9050919050565b60006118f0826118c3565b9050919050565b6000611902826118e5565b9050919050565b611912816118f7565b82525050565b600060208201905061192d6000830184611909565b92915050565b60006080820190506119486000830187611700565b61195560208301866117f7565b61196260408301856117f7565b61196f60608301846117a0565b95945050505050565b600082825260208201905092915050565b7f4d65726368616e74206e6f742072656769737465726564000000000000000000600082015250565b60006119bf601783611978565b91506119ca82611989565b602082019050919050565b600060208201905081810360008301526119ee816119b2565b9050919050565b7f496e76616c6964206d65726368616e7420616464726573730000000000000000600082015250565b6000611a2b601883611978565b9150611a36826119f5565b602082019050919050565b60006020820190508181036000830152611a5a81611a1e565b9050919050565b7f4d65726368616e7420616c726561647920726567697374657265640000000000600082015250565b6000611a97601b83611978565b9150611aa282611a61565b602082019050919050565b60006020820190508181036000830152611ac681611a8a565b9050919050565b7f436173686261636b20726174652063616e6e6f74206578636565642031303025600082015250565b6000611b03602083611978565b9150611b0e82611acd565b602082019050919050565b60006020820190508181036000830152611b3281611af6565b9050919050565b7f5573657220646f6573206e6f7420657869737400000000000000000000000000600082015250565b6000611b6f601383611978565b9150611b7a82611b39565b602082019050919050565b60006020820190508181036000830152611b9e81611b62565b9050919050565b7f416d6f756e74206d7573742062652067726561746572207468616e207a65726f600082015250565b6000611bdb602083611978565b9150611be682611ba5565b602082019050919050565b60006020820190508181036000830152611c0a81611bce565b9050919050565b7f496e73756666696369656e7420617661696c61626c6520636173686261636b00600082015250565b6000611c47601f83611978565b9150611c5282611c11565b602082019050919050565b60006020820190508181036000830152611c7681611c3a565b9050919050565b7f4e487b7100000000000000000000000000000000000000000000000000000000600052601160045260246000fd5b6000611cb78261172a565b9150611cc28361172a565b9250828203905081811115611cda57611cd9611c7d565b5b92915050565b6000604082019050611cf560008301856117a0565b611d0260208301846117f7565b9392505050565b611d12816116f4565b8114611d1d57600080fd5b50565b600081519050611d2f81611d09565b92915050565b600060208284031215611d4b57611d4a611664565b5b6000611d5984828501611d20565b91505092915050565b7f546f6b656e207472616e73666572206661696c65640000000000000000000000600082015250565b6000611d98601583611978565b9150611da382611d62565b602082019050919050565b60006020820190508181036000830152611dc781611d8b565b9050919050565b7f4f6e6c792072656769737465726564206d65726368616e74732063616e20697360008201527f73756520636173686261636b0000000000000000000000000000000000000000602082015250565b6000611e2a602c83611978565b9150611e3582611dce565b604082019050919050565b60006020820190508181036000830152611e5981611e1d565b9050919050565b7f496e76616c696420757365722061646472657373000000000000000000000000600082015250565b6000611e96601483611978565b9150611ea182611e60565b602082019050919050565b60006020820190508181036000830152611ec581611e89565b9050919050565b7f507572636861736520616d6f756e74206d75737420626520677265617465722060008201527f7468616e207a65726f0000000000000000000000000000000000000000000000602082015250565b6000611f28602983611978565b9150611f3382611ecc565b604082019050919050565b60006020820190508181036000830152611f5781611f1b565b9050919050565b6000611f698261172a565b9150611f748361172a565b9250828202611f828161172a565b91508282048414831517611f9957611f98611c7d565b5b5092915050565b7f4e487b7100000000000000000000000000000000000000000000000000000000600052601260045260246000fd5b6000611fda8261172a565b9150611fe58361172a565b925082611ff557611ff4611fa0565b5b828204905092915050565b600061200b8261172a565b91506120168361172a565b925082820190508082111561202e5761202d611c7d565b5b92915050565b600061203f8261172a565b91507fffffffffffffffffffffffffffffffffffffffffffffffffffffffffffffffff820361207157612070611c7d565b5b600182019050919050565b600060608201905061209160008301866117a0565b61209e60208301856117a0565b6120ab60408301846117f7565b949350505050565b60006040820190506120c860008301856117f7565b6120d560208301846117f7565b9392505050565b7f4f776e61626c653a206e6577206f776e657220697320746865207a65726f206160008201527f6464726573730000000000000000000000000000000000000000000000000000602082015250565b6000612138602683611978565b9150612143826120dc565b604082019050919050565b600060208201905081810360008301526121678161212b565b9050919050565b7f4f776e61626c653a2063616c6c6572206973206e6f7420746865206f776e6572600082015250565b60006121a4602083611978565b91506121af8261216e565b602082019050919050565b600060208201905081810360008301526121d381612197565b9050919050565b7f5265656e7472616e637947756172643a207265656e7472616e742063616c6c00600082015250565b6000612210601f83611978565b915061221b826121da565b602082019050919050565b6000602082019050818103600083015261223f81612203565b905091905056fea2646970667358221220ddf88609186a75dcae21ae2f75a25da44c68e3210d34d1197bcb7f371a940c7564736f6c634300081c0033",
  "linkReferences": {},
  "deployedLinkReferences": {}
}